:020000040800F2
:1000000040090020D50000088528000815280008B0
:1000100000000000000000000000000000000000E0
:100020000000000000000000000000008D2B000810
:100030000000000000000000012A00081340000832
:10004000E7000008E7000008D32A0008E7000008DE
:10005000E7000008390800084908000859080008A6
:10006000E7000008E7000008E7000008E7000008D4
:10007000E7000008E7000008E7000008E7000008C4
:10008000E7000008E7000008E700000800000000A3
:10009000E7000008E7000008E7000008E7000008A4
:1000A000E7000008E7000008E7000008E700000894
:1000B0007F460008E7000008E7000008E7000008A6
:1000C0000348854600F080FB004800475D5100086A
:1000D000400900200448804704480047FEE7FEE747
:1000E000FEE7FEE7FEE7FEE7A9400008C1000008C2
:1000F00030B50B46014600202022012409E00D46C0
:10010000D5409D4205D31D469540491B2546954047
:1001100040191546521E002DF1DC30BDF0B51FB45C
:100120000646002082B005464024019100901BE065
:10013000019922460F46304600F050FA049A059B7A
:10014000801A994110D310461946224600F036FA1B
:10015000361A8F410197224601200021009F00F0AE
:100160002DFA38184D4100902046641E0028DFDC2F
:10017000019B00982946324607B0F0BD03460B4369
:100180009B0703D009E008C9121F08C0042AFAD24D
:1001900003E00B780370401C491C521EF9D27047D3
:1001A000D2B201E00270401C491EFBD2704700220F
:1001B000F6E710B513460A4604461946FFF7F0FF66
:1001C000204610BDF0B507460846584087B0C00F1E
:1001D000049048000E46590040084908BC1A88415E
:1001E00005D2384631461E4617460B460246580091
:1001F000400810434CD0300D039040055900400D8D
:10020000490D0590401A0290402872DA1803012126
:10021000000B09050843019004980092002805D0BE
:100220000199524200208841009201900298402199
:100230000A1A0199009800F0C1F905460C466B4670
:1002400007CB00F0DCF9C0197141039A0E0D0023B1
:10025000D71756401A467A40164344D0049A002ACB
:100260002DD0029A012A039A15DC1205C01A914179
:1002700001263605001C7141D20F059ED20700935E
:10028000019202962A46234600F0D9F907B0F0BD44
:1002900038463146FAE71605224A0F46B218C01A08
:1002A000B74101210905001C4F4100187F4111464B
:1002B00018187941E20F10436D19644113E0E20709
:1002C0006D0815436408C2071443039A01261205FA
:1002D000C01A91413605001C7141CE0740083043D9
:1002E0004908C01851412A46234600F09BF9CDE742
:1002F000FFE7049801224000C117121A00238B4126
:1003000004983146C417381AA141EEE730B40124ED
:10031000E407634030BC55E730B40124E407614092
:1003200030BC4FE70000E0FFF0B51FB488B00B9978
:100330000998002448400999C00F490049080991CB
:10034000C0070B990090490049080B91099908983A
:10035000A64608431CD00B990A98084318D0099860
:1003600001244000420D4800410D09982405000376
:10037000000B204309900B980003000B20430B90C7
:1003800050181C494018002201901446104605E000
:10039000002001460DB0F0BD032801DA034600E05D
:1003A00003239C46C11A0AAE0AE05F0008ADED5B6C
:1003B0004F00F75B7D430027AA187C41491C5B1E58
:1003C0006145F2DD410004AB5A522104120C0A438C
:1003D000240C401C0828DFDB01980290009970462D
:1003E00001910090059B049A0799069800F027F95F
:1003F000D0E700000DFCFFFFF0B50C465C4085B077
:10040000E40FE40703944C00002664085900944666
:10041000490802460296224321D062460A431ED072
:100420006200570D4A000E032303550D01240246B6
:100430002C492405781B1B0B360B401823432643FD
:10044000614600901C46501AB44103D30098401CEA
:10045000009002E0921800985B41002803DA002027
:10046000014605B0F0BD002001210905074686467A
:1004700011E064461D46141BB54106D36546521B68
:10048000B341744607430C43A646CD0740084908CC
:10049000284392185B4105460D43EAD110461843A4
:1004A00013D06046194650407140084306D060465C
:1004B000101AB34106D20122002306E000220123D4
:1004C000DB0702E00122D243531000987446010575
:1004D000381C6141029C039D0019694100F0A2F89B
:1004E000BFE70000FD03000070B54B005B0803434D
:1004F0000BD04B005C0D002633466542B341D41748
:10050000AD1AA34102DB0020014670BD1205301870
:10051000514170BD0EB5C217C10F5040CA074018F7
:100520000021054B0293019200910A460B4600F010
:1005300086F803B000BD0000330400000EB5054985
:100540000291002100910A460B46019100F077F8D4
:1005500003B000BD330400004A0009030123090B66
:100560001B051943094B10B5520D9A4201DA0020C0
:1005700010BD064B34339A4203DC9A1A00F02EF871
:1005800010BD03495118884010BD0000FF03000052
:10059000CDFBFFFF10B5002904DB0124E407404236
:1005A0008C412146002B04DB1C460123DB07524211
:1005B000A341994200D1904210BD000010B5202AFD
:1005C00004DB0146203A9140002010BD91402023D9
:1005D0009C1A0346E3401943904010BD10B5202AF1
:1005E00004DB0846203AD040002110BD0B46D34022
:1005F000D0402024A21A91400843194610BD10B5DE
:10060000202A06DBCB170846203A1041C1170B43BE
:1006100006E00B461341D0402024A21A9140084323
:10062000194610BD10B5002B08DA0024401C6141AA
:1006300092185B411A4301D14008400010BDF0B54B
:100640001FB482B005460C0003D0084604F02EF813
:1006500002E004F02BF820300246009021462846A4
:10066000FFF7ACFF049B059A04460F46184311435D
:10067000084314D0184610431BD0009840210A1A92
:1006800018460599FFF7AAFF05460E46009A0599F8
:100690000498FFF793FF084305D0012004E02046AB
:1006A000394607B0F0BD0020C11705430E432C4367
:1006B000374300990E986305401A7905E40A002231
:1006C0000C43FD0A0A3002D500200146E9E7010586
:1006D000101969410C9C0D9D00196941FFF7A2FF9B
:1006E000DFE70000F8B50546480040080C462843FF
:1006F00004D06000184A400D904201DD2846F8BD44
:1007000015493539884210DC88420BDB290D20035E
:1007100008432903014305D0E00F1049C0074118E1
:100720000020F8BD00200146F8BD161A4020821BAB
:1007300028462146FFF742FF0746009128462146FA
:100740003246FFF74BFF3A46009BFFF76BFF3246FE
:10075000FFF734FFF8BD0000330400000000F03F55
:100760004A0009030123090B1B0519430A4B10B565
:10077000520D9A4202DA0020014610BD064B343376
:100780009A4203DC9A1AFFF729FF10BD034BD218D7
:10079000FFF714FF10BD0000FF030000CDFBFFFFBB
:1007A00010B5002904DB0124E40740428C412146B6
:1007B000002B04DB1C460123DB075242A3418B4282
:1007C00000D1824210BD0000064C0125064E05E016
:1007D000E36807CC2B430C3C98471034B442F7D362
:1007E000FFF772FC605600088056000830B585B0EF
:1007F0000320019000200290032040030090052078
:100800006946000700F080F9084C606B0125AD05D2
:100810002843606300F04AF900F058F900F04EF9FF
:10082000606BA843606305B030BD0000001002405B
:1008300010B501F0B7FD10BD10B5012000F058F95A
:10084000022000F055F910BD10B5042000F050F959
:10085000082000F04DF910BD10B5102000F048F947
:10086000202000F045F9402000F042F9802000F0FF
:100870003FF9FF20013000F03BF90120400200F079
:1008800037F90120800200F033F90120C00200F0A6
:100890002FF90120000300F02BF90120400300F0A4
:1008A00027F90120800300F023F90120C00300F0A4
:1008B0001FF910BDFEE7000010B5094A0021CB006A
:1008C000D458844207D89B189B68834203D9C80038
:1008D0008018007910BD491CC9B21529EFD3FEE775
:1008E0000C55000870B5040006D0A06D2646002502
:1008F0004036002802D006E0012070BDE565357560
:10090000204600F0D1F8A06DC00603D421688868A5
:10091000400705D5A06D10210843A0653575EBE7AC
:10092000A06DFF220132904302221043A065886827
:100930008207920F5A48012A02D10A68D2072BD1A6
:10094000032362689B079A4205D05B429A4202D019
:100950005B009A4209D10A69920092080A612168F3
:100960000A6963681A430A610CE00A6992009208F6
:100970000A6181680F2292049143816081686268F4
:10098000114381602168CA6818239A43CA602168AC
:10099000CA68A3681A43CA6081680122520691435B
:1009A00081608168228F52061143816020688168CE
:1009B000C90004D4816801221207114381602068B4
:1009C000C168384A1140C1602169E068022923D01A
:1009D00000210843216A226B490352001143084356
:1009E000616B0843A16989030843E169C9030843AE
:1009F0002168CA681043C860A06A0146FF39C2393D
:100A000005D0E16A08432168CA681043C860606A7B
:100A10000121012802D00BE00421DAE7206A002836
:100A200023D0A06D20221043A065E06D0843E0654F
:100A3000206C012820681FD00169C90703D0016913
:100A400049084900016120684169C908C90041613C
:100A500020684169E26B11434161E565A06D800842
:100A60008000401CA065002070BD2068C268012382
:100A70001B041A43C260DBE70269FF239B009A4311
:100A8000026120680269636CE66C1A43A36C33430D
:100A90001A430261206802690A430261D3E7000039
:100AA000002701401902FEFF70470000024841681C
:100AB00049084900416070470058014002484168B8
:100AC0000422914341607047005801400248416848
:100AD00002229143416070470058014001B50098DF
:100AE000FFF7A6FE08BD10B501F018FC10BD000010
:100AF00010B504494A69024202D04861FFF7F3FF8A
:100B000010BD000000040140F8B500230124A7E057
:100B100027469F403A4070D04D68022D01D0122DDB
:100B200014D1DD08AD002D1800952D6A5E07AC4686
:100B3000F50E0F26AE46AE406546B543AC460E698F
:100B40007546AE4065462E43009D2E624D68012DD0
:100B500005D0022D03D0112D01D0122D16D185689C
:100B60000326AC465D00AE46AE406546B543AC4696
:100B7000CE687546AE4065462E43866046680D7960
:100B8000BE43ED06ED0F9D403543456006685F00AE
:100B90000325BD40AE46AE430D79B446AE07B60F51
:100BA000BE4065462E430660C6687546AE438D68F6
:100BB000BD403543C5604D68ED0050D52B4D6E6B83
:100BC00026436E639E082A4DB6007519AC46AD6883
:100BD0009E07360F0F27B740BD4305273F07B84292
:100BE00001D100271AE0234FB84201D1012715E0B7
:100BF000214FB84202D1022710E030E01F4FB84227
:100C000001D103270AE01E4FB84201D1042705E0B5
:100C10001C4FB84201D1052700E00627B7402F43FB
:100C20006546AF60184D2E684F689643FF0300D5A8
:100C300016432E606E684F689643BF0300D5164377
:100C40006E60AE684F689643FF0200D51643AE60F3
:100C5000EE684F689643BF0200D51643EE605B1CFA
:100C60000A681546DD4000D052E7F8BD001002408A
:100C7000000001400004005000080050000C00502B
:100C800000100050001C00500004014042694A401E
:100C900042617047002A01D08161704781627047CC
:100CA00001480068704700004000002002480168C9
:100CB000491C0160704700004000002010B5064844
:100CC0000168022211430160032000F007F800F0E0
:100CD00007F8002010BD00000020024000207047EF
:100CE00010B500F03FF800F035F80448016808221C
:100CF0001143016000F026F810BD00000020024002
:100D0000C106C90E012088400149086070470000F3
:100D100080E200E0C106C90E012088400149086058
:100D20007047000000E100E0C106C90E01208840C4
:100D3000014908607047000000E200E010B501F0D2
:100D4000A3FD10BD02480168021511430160704700
:100D5000007000400248016842151143016070476D
:100D60000070004002480168102291430160704702
:100D700000700040F8B5684C074601210020C90307
:100D8000644E654A4034102F73D011DC012F75D0AA
:100D9000022F70D0042F6FD0082F21D1E1680323D8
:100DA0001B03194069D0BC026310A1427AD09EE0B7
:100DB00003255A4B2D04202F08D0402F32D0FF3F5F
:100DC0007F1E6BD007263602B74209D126692469F7
:100DD00001272C403F04BC4203D1B2055AE008462B
:100DE000F8BD012149048C4203D1B107F8D54C4824
:100DF000F8BDAC42FCD111688903F9D51068032114
:100E00000905084001210905401A09D0401A05D0FA
:100E1000884201D14348F8BD1846F8BD4248F8BDA4
:100E20004248F8BDE1680124A406214006D0A14251
:100E3000F7D191688907F4D53D48F8BD116889015B
:100E4000FBD5D068D16880023A4C000F245C0802C0
:100E5000810FD068491CC00306D41068C00601D5B4
:100E6000184602E0304600E033486043FFF740F99F
:100E7000F8BD3FE002E01DE02AE026E0E3689B07C2
:100E80009B0F0CD0022B0DD0012B10D0032BEFD1D8
:100E900022699205002AA2DBEAE703E02EE000F0D7
:100EA000E7F9E5E711684907E2D53046E0E700F0E9
:100EB000EFF9DDE7E3680C252B4006D0082BF1D0D5
:100EC000042BF4D00C2BE3D0D2E700F0C1F9CFE72C
:100ED000E3680325AD022B40F7D00127FF02BB4298
:100EE000E0D07A109342E2D0AB42D1D0C0E7994231
:100EF000DDD0BDE7916B4902E7D4B9E7E16829404D
:100F0000E3D001235B049942CCD05A109142CED059
:100F1000AEE700000024F4000010024000093D008C
:100F20008890000020A1070040420F0080841E002E
:100F3000006CDC023456000800127A00F8B5044652
:100F40000068664D810601D400057DD5634E0027FB
:100F5000403EB06BC00004D4B06B31040843B063B2
:100F600001275F480168C90511D401688215114342
:100F70000160FFF795FE009005E0FFF791FE0099F4
:100F8000401A642844D856480068C005F5D5316831
:100F900003200005626801401040884205D1032308
:100FA000A0681B051840884208D09003800F0328D2
:100FB00004D13068800301D50120F8BD28690321E0
:100FC0000904084029D00A40824202D022789206C1
:100FD00006D4A2680A4082421FD0208800051CD592
:100FE00028692A6988430121C9040A432A612A69B8
:100FF0008A432A612861C0050FD5FFF751FE009092
:1010000008E0FFF74DFE0099411A3648814201D9A8
:101010000320F8BD28698005F3D561688803800F37
:10102000032805D132680005824301400A4332603B
:101030002869032261681204114008432861002FC7
:1010400006D0B06B012100E002E009078843B063DD
:101050002078C00705D0E868E16880088000084370
:10106000E8602078800705D5E8680C21884321696D
:101070000843E8602078400706D5E8680321890224
:10108000884361690843E8602078000706D5E8686E
:10109000032109038843A1690843E8602088C0054B
:1010A00006D5E868032109048843E1690843E8603C
:1010B0002078400606D5E868012189068843616AE0
:1010C0000843E8602078000606D5E8680321890413
:1010D0008843216A0843E8600020F8BD40100240C0
:1010E0000070004088130000F8B5054653480E46CE
:1010F0000068C007C00FB0420AD2504801684908D2
:101100004900314301600068C007C00FB0426FD191
:1011100028784B4C800705D5E068F0218843A96802
:101120000843E0602878C00752D06868022817D0CA
:10113000032818D02168012818D08905002957DA1A
:10114000E168890889000143E160FFF7A9FD69684A
:101150000746022912D003291CD0012926D033E0EA
:1011600021688903EAE721688901E7E74907E5E79C
:10117000FFF796FDC11B3348814223D8E068000782
:10118000800F0228F4D123E0FFF78AFDC11B2D4810
:10119000814217D8E0680007800F0328F4D117E0D8
:1011A000FFF77EFDC11B274881420BD8E06800078E
:1011B000800F0128F4D10BE0FFF772FDC11B21481D
:1011C000814201D90320F8BDE0680007800FF3D108
:1011D0001A480168C907C90FB1420BD9016849080B
:1011E0004900314301600068C007C00FB04201D020
:1011F0000120F8BD2878400706D5E06807210902DC
:101200008843E9680843E0602878000707D5E0686C
:101210000721C90288432969C9000843E06000F03A
:1012200037F8E168084A0906090F515CC8400749C8
:1012300008600320FFF752FD0020F8BD00200240A7
:101240000010024088130000245600083C000020D3
:10125000044805490068C968044A4905490F515CBA
:10126000C84070473C000020001002403D56000876
:10127000044805490068C968044A8904490F515C5B
:10128000C84070473C000020001002403D56000856
:1012900010B5184AD1680C20084004280BD0082843
:1012A00010D00C2810D050680004410F0120C0035A
:1012B000491C884010BD1068C00601D50E4810BDFD
:1012C0000E4810BD0E4810BD88020E4B000F185C72
:1012D0000902D368890F491CDB0301D5084A05E0E0
:1012E0001268D20601D5044A00E0044A5043FEF7D2
:1012F000FFFE10BD0010024000093D000024F40074
:1013000000127A0034560008F8B504460078FF4D04
:10131000C0074CD0E8680007800F022807D0E868B3
:101320000007800F032809D1E868C00306D52868A4
:1013300080033CD56068002875D038E001206268E1
:101340000004824203D129680143296011E005238A
:1013500001211B0489049A422A6802D10A432A60A7
:10136000F1E782432A602A68024000922868884395
:101370002860606800280DD0FFF792FC0646E44F15
:1013800004E0FFF78DFC801BB8427DD828688003FD
:10139000F7D50CE0FFF784FC0646DD4F04E0FFF7CD
:1013A0007FFC801BB842F0D828688003F7D42078EF
:1013B000800741D5E8681F270007800F3F020128FA
:1013C00007D0E8680007800F032809D1E868C00348
:1013D00006D42868400717D5E068012823D113E018
:1013E000E068002817D02968092291430143296049
:1013F000FFF756FC064604E0FFF752FC801B02286C
:10140000C3D828684007F7D568682169B84309023E
:101410000843686010E02868400840002860FFF733
:101420003FFC064605E090E0FFF73AFC801B0228EF
:10143000ABD828684007F7D42078C00676D5E8688E
:10144000B44E0007800F0BD0E06900285DD02868FB
:10145000FF21013108432860FFF722FC074644E0E2
:101460002868800502D5E06900286ED0606A696846
:101470003140884212D901F0C5FA0028AED168681F
:10148000616AB043084300E0E4E068606868218C6A
:101490000002000A0906084368600FE06968B1436A
:1014A000014369606868218C0002000A090608434C
:1014B0006860606A01F0A6FA00288FD1606A410B6B
:1014C0000120C003491C8840E968934A0906090FB6
:1014D000515CC840914908600320FFF7FFFB25E0FD
:1014E000FFF7DEFBC01B02288AD828688005F7D5E5
:1014F0006868616AB043084368606868218C0002CC
:10150000000A09060843686010E02968FF200130DE
:1015100081432960FFF7C4FB064604E0FFF7C0FBE8
:10152000801B022884D828688005F7D420787C4E58
:10153000000723D560690028306910D001210843D5
:101540003061FFF7ADFB074605E009E1FFF7A8FBB7
:10155000C01B02287ED830698007F7D50EE040080E
:1015600040003061FFF79CFB074604E0FFF798FB63
:10157000C01B02286ED830698007F7D42078400756
:1015800061D5A86B0027C00005D4A86B012109070D
:101590000843A863012763480168C90511D401689D
:1015A000821511430160FFF77BFB009005E0FFF718
:1015B00077FB0099401A64284CD85A480068C00547
:1015C000F5D5FF20A2680130824203D13169014381
:1015D000316111E001218902002A07D005231B0295
:1015E0009A4203D132690A433261EFE7326982439A
:1015F0003261306988433061A06800280ED0FFF75F
:101600004FFB009006E0FFF74BFB0099411A404862
:1016100081421FD830698005F5D50DE0FFF740FB0A
:10162000009006E0FFF73CFB0099411A38488142E0
:1016300010D830698005F5D4002F04D0A96B0120A3
:1016400000078143A9632078800630D53649A06918
:101650004A1400E07DE0002816D0AB680120034367
:10166000AB606B6B03436B63086A10430862FFF760
:1016700017FB064604E0FFF713FB801B022868D81F
:10168000A8688007F7D512E0A86840084000A86065
:10169000086A90430862FFF703FB064604E0FFF781
:1016A000FFFA801B022854D8A8688007F7D4A06AE4
:1016B000002853D0E9680907890F032950D0012673
:1016C00036060228286805D0B0432860FFF7E8FAFC
:1016D000044640E0B0432860FFF7E2FA074604E022
:1016E000FFF7DEFAC01B022833D828688001F7D440
:1016F000216BE06AEA680843616BFD231B049A438F
:1017000011430843E860286830430FE000100240AE
:101710008813000000E00000245600083C00002070
:101720004010024000700040000001402860FFF7B8
:10173000B7FA044604E0FFF7B3FA001B022808D802
:1017400028688001F7D509E0FFF7AAFA001B0228F4
:1017500001D90320F8BD28688001F5D40020F8BD28
:101760000120F8BD30B5014620310A78012A15D094
:1017700001220A7002234B700468CA236362046862
:101780005323636203689C6820252C439C60006897
:10179000FF2343624A700020087030BD022030BD34
:1017A00010B502F0C1FC10BDF8B505460446203561
:1017B000287801281DD00120287002206870226836
:1017C000CA205062226853205062FF200130002658
:1017D000FF2781421CD121688A6882438A60206881
:1017E00081680122120391438160FFF759FA00904A
:1017F00009E00220F8BDFFF753FA0099411A7D2055
:10180000C00081421BD82068C068C007F3D020E028
:1018100020688168012252029143816020688168BA
:10182000120191438160FFF73BFA00900DE0FFF752
:1018300037FA0099411A7D20C000814205D92068FD
:101840004762032068702E70F8BD2068C06880076A
:10185000EDD520684762012068702E700020F8BD29
:1018600010B500680B464068C021C9430140000222
:10187000000ECC04D870E40E5C708C06A40E090433
:10188000490F9C701970002A0AD101F0F3F8D87042
:10189000587801F0EFF85870987801F0EBF89870EC
:1018A000002010BD30B50B460168896A5960016897
:1018B00009694904490C9960006804680F48214689
:1018C000014088024D04800E18706D0E49065D704F
:1018D000490E99706102490E40242140D970002AB6
:1018E0000AD101F0C7F81870587801F0C3F85870A1
:1018F000987801F0BFF89870002030BD7F7F7F009E
:1019000070B5040005D0254620356878002802D03F
:1019100006E0012070BD00202870204600F042F84B
:10192000022068702168CA204862216853204862FA
:10193000204601F0B2F8FF210028206803D0416260
:1019400004206870E5E78268154B1A4082602268BF
:1019500090686368A669184323693343184390600D
:101960002268E06810612068026923891B041A4319
:1019700002612068C26880239A43C2602068C26CFA
:1019800092089200C264E269606902432068C36CF5
:101990001A43C2642068416201206870002070BD53
:1019A000BFFF8FFF00B599B00420009000200A907F
:1019B000FF20013002906846FFF7A6FC002801D006
:1019C000FEF778FF20200E90C0020F900EA8FFF7C0
:1019D000B5FA002801D0FEF76DFF08480169012221
:1019E000920411430161002211460220FFF7A6F97B
:1019F0000220FFF78FF919B000BD0000401002402F
:101A0000FEB506460446203630780B46012842D003
:101A1000012030700220707020681D46002720359C
:101A20008068002A39D0400655D5187801F022F890
:101A3000287801F01FF81978987809040843597834
:101A4000DA78090212041143084329780906084389
:101A5000D969084359690843054699695868084394
:101A600000902168CA204862216853204862FF2004
:101A70005A6A0130802182424AD1226893688343A6
:101A800093602268D0680840FF388238D060FFF742
:101A900007F9019029E00220FEBD400600D4DF7066
:101AA000187800F0EFFF0204587800F0EBFF000216
:101AB0000243987800F0E6FF0243D878000402431E
:101AC000287800F0DFFF00060243D8690243586916
:101AD00002431546C1E7DF70AAE7FFF7E1F8019975
:101AE000411A7D20C00081422AD82068C068C00702
:101AF000F3D02068C5612168009848642068816837
:101B0000FF2201321143816020688168120130E0B8
:101B10002068826801235B029A4382602068C26861
:101B20000A401D495118C160FFF7BAF801900EE054
:101B3000FFF7B6F80199411A7D20C000814206D90D
:101B40002168FF204862032070703770FEBD206856
:101B5000C0688007ECD52068056221680098886419
:101B600020688168012252021143816020688168E7
:101B700012011143816009480268012149040A43A6
:101B8000026082680A4382602168FF204862012067
:101B9000707037700020FEBD7FFDFFFF0004014024
:101BA000F8B505460446203528780B46012815D09F
:101BB00001202870022068705878002A10D000F0A8
:101BC00059FF987800F056FFD8789E7800040643B5
:101BD0005878197800024903084316E00220F8BD3E
:101BE000C10603D5EF2108400A305870D87800F0BC
:101BF00049FF0604587800F045FF00020643987834
:101C000000F040FF06431878400306432168CA20CD
:101C10004862216853204862204600F03EFF0027BA
:101C2000002811D110480640206846602068C1682D
:101C300080229143C1602068806880060CD42046D1
:101C400000F08CF8002807D02168FF2048620420AB
:101C500068702F700120F8BD2168FF2048620120C4
:101C600068702F700020F8BD3FFFFF00F8B50646F2
:101C70000446203630780D4601280ED00120307001
:101C800002207070206800278068002A07D0400674
:101C90001AD5287800F0EEFE17E00220F8BD4006C5
:101CA00000D4EF70287800F0EDFE0204687800F0B0
:101CB000E9FE00020243A87800F0E4FE0243E8785F
:101CC0000004024300920BE0EF702978A878090421
:101CD00008436978EA780902120411430843009026
:101CE0002168CA204862216853204862204600F0DB
:101CF000D4FE00281FD118490098084021680860C8
:101D00002068816801229204914381602969E86812
:101D1000084321688A68104388602068C16880226F
:101D20009143C1602068806880060CD4204600F092
:101D300015F8002807D02168FF2048620420707041
:101D400037700120F8BD2168FF20486201207070C3
:101D500037700020F8BD00007F7F7F0070B504461B
:101D60000068C168A0229143C160FEF799FF7D26FB
:101D70000546F60006E0FEF793FF401BB04201D98E
:101D8000032070BD2068C0688006F4D5002070BDB7
:101D900070B5040006D025464035687C0026002832
:101DA00002D005E0012070BD2E74204600F032F80C
:101DB0000220687420680168402291430160A16894
:101DC000606822690843E1681143084361690122A0
:101DD0000843A169520211400843E1690843216A9E
:101DE0000843A16A084321680860A0690421000C27
:101DF0000840616A0843216848602168E06A086118
:101E00002068C16992009143C161666501206874D0
:101E1000002070BD7047F8B504460027684607806B
:101E200026464036707C012802D0707C22287ED164
:101E300000290CD0002A0AD0002B08D0307C0128C1
:101E400075D001203074707C012802D003E001209D
:101E5000F8BD322070746765A263A387E3872163AE
:101E6000A386E386A764E7640125A06A6D03A84200
:101E700007D120680168A9430160206801682943EF
:101E8000016020680168490603D4016840221143BB
:101E900001600121FF20E268C90205308A426168C1
:101EA00066D1002904D081420CD1E08E012809D1ED
:101EB000206B21680088C860206B801C2063E08E46
:101EC000401EE086E08E002843D1A06AA84246D199
:101ED0002068016801221203114301603FE020687D
:101EE000C068A16B0880A06B801CA063B0E00022DA
:101EF00002212046069B00F0F0FD00287DD1206BDA
:101F000021680088C860206B801C2063E08E401E22
:101F1000E086E08E002808D1A06AA84205D120689A
:101F200001680122120311430160002200E0CCE0AD
:101F300001212046069B00F0D0FD00287FD12068BB
:101F4000C068A16B0880A06B801CA063E08F401E5E
:101F5000E087E08E0028CAD1606800287BD100228B
:101F600001212046069B00F0B8FD002867D1B6E7A6
:101F7000002904D081420BD1E08E012808D1206BCA
:101F8000411C216321680078C860E08E401EE08615
:101F9000E08E002845D1A06AA84205D120680168DA
:101FA0000122120311430160002201212046069BF9
:101FB00000F093FD002842D12068C068A16B087032
:101FC00046E0002202212046069B00F086FD002804
:101FD00035D1206B411C216321680078C860E08EF8
:101FE000401EE086E08E00280AD1A06AA84207D1F0
:101FF000206802680121090300E020E00A43026032
:10200000002201212046069B00F067FD002816D122
:102010002068C268A06B411CA1630270E08F401E63
:10202000E087E08E0028CCD16068002813D1002220
:1020300001212046069B00F050FD002802D003201D
:10204000F8BD08E02068C168A06B421CA263017063
:10205000E08F401EE087A06AA8420FD10022012134
:102060002046069B00F039FD002802D0606D022159
:102070000EE02068C0686946088008880122802137
:102080002046069B00F029FD002804D0606D202129
:1020900008436065D3E701207074A06AA84211D19B
:1020A00020688168C943C9060CD4616D02221143BE
:1020B00061650168A94301602068016829430160E6
:1020C0003774C4E637740020BAE70220B8E770B569
:1020D000040005D025466035687A002802D006E065
:1020E000012070BD00202872204600F027F824202F
:1020F000687220680168490849000160606A002828
:1021000002D0204602F0DCF8204602F06FF90128E8
:10211000E7D0206841680922D202914341602068DB
:1021200081682A229143816020680168012211435D
:102130000160204602F02AF970BD000010B5044885
:10214000416B012292031143416303F02FF910BD4B
:1021500000100240FFB5064604466036707A83B030
:102160000D46202858D1002D0CD00598002809D004
:102170000120A1680003814207D12069002804D111
:10218000E80702D0012007B0F0BD307A012843D023
:10219000012030720020E06621207072FEF780FD81
:1021A000019027464037059838820598788218E0D4
:1021B000788A401E7882069800900022802120466E
:1021C000019B02F02BFA002818D10120A16800031E
:1021D000814202D12069002812D0216828788862C3
:1021E0006D1C788A0028E3D10698009000224021D7
:1021F0002046019B02F012FA002808D00320C2E713
:1022000028882168C005C00D8862AD1CE9E7202040
:10221000707200203072B6E70220B4E710B518489B
:1022200086B00178002929D10121017016480024C7
:10223000144A04640260C4610322846192078460CA
:1022400042608163C460046244620222C462C26369
:1022500001610421046341610C48416B4215114343
:1022600041630948FEF73EFB0320019003900520DF
:102270006A4608210294000700F026F806B010BD57
:102280004E00002000240140700300200010024096
:10229000014600200A0A00D00820084A114201D055
:1022A00004221043064A114201D002221043054A7B
:1022B000114201D00121084370470000F0F00000F6
:1022C000CCCC0000AAAA000038B50B231B07C51808
:1022D000114B0FD01C152D1B18D02D1B19D0A5424A
:1022E000DD6A05D108242543DD62DB6A234007E06F
:1022F0008024F8E7DC6A01252C43DC62DB6A2B4092
:10230000009311601146FEF7FFFB38BDDD6A022421
:10231000E9E7DD6A0424E6E70010024010B5FFF7A4
:10232000B7FF810002484058002800D0804710BD08
:102330000002002070B51C4615460E460846FFF701
:10234000A7FF002C0DD0074980000C50304600F04C
:1023500081FA044600222946FEF7F0FC2046FEF7EB
:10236000D9FC70BD0002002010B5D2B2FEF792FC7D
:1023700010BD000010B5094C607800280CD1FFF7A3
:102380004DFF07480068804700F0D6F900F08EF84E
:1023900002F0EAFF0120607010BD00004E00002036
:1023A000BC55000870B5410EC0017D220023FDF729
:1023B000B5FE054600F072F8044600E000BF00F0EC
:1023C0006DF8001BA842F9D370BD000070B505463A
:1023D0000C4600222048FFF765FA002229461E48D5
:1023E0006668FFF73DFA002221461B48FFF75AFABC
:1023F0006068B042F1D1E878184A01465043C01CE9
:102400008308880726D0164968783D22064650433F
:1024100002463C3A7000801EC1408807D10F8918DF
:10242000800F4910081AC018A978401E08180D49D5
:102430003C2248436178E123514322781B015A43EF
:102440008918A27810180818074A61688002511A82
:10245000401870BD0549D7E740020020B5050000CF
:10246000A0AA990080510100FF03000050554400CC
:102470000320704701480068704700008C0200206C
:1024800000B587B0694605A8FFF7A0FF02490968B3
:1024900007B0401A00BD00008C02002000B587B0D4
:1024A000694605A8FFF792FF07B000BD10B5084CBC
:1024B000207800280AD100F04FF8FF2101310548AB
:1024C000FFF772F900F078F80120207010BD0000CD
:1024D000440000204002002010B50C4C012000F008
:1024E000A7F921688868C0040ED5C868C0050BD557
:1024F000C86880221040FF388238C86004499002C2
:1025000048612046FFF74CF910BD00004002002052
:102510000004014070B50446FFF7B2FF211A0D4DCB
:102520000220285EC01C814203D9012000F080F9FE
:1025300002E0012000F070F900F086F9002805D1D2
:10254000012000F075F90220285E241A204600F0D0
:102550003FF870BD4400002010B51449144886B0FF
:10256000002412C01F21016084600461114944618C
:1025700041600838FFF7C4F96946CC7501204875F9
:1025800088750875002205A90948FFF709FB009422
:10259000019404940022694605480394FFF766FB02
:1025A0000348FFF7DFF806B010BD00000028004028
:1025B00040020020FF03000010B5044C2046211DFE
:1025C0001830FFF703FF206010BD00008C020020D0
:1025D000F0B587B0044614223F4901A8FDF7CEFDAF
:1025E0003D485038406E009000F07EF83B4802991C
:1025F0003B4A401AA105890D081887B2A10A68460E
:102600008078534202E08918401C80B29942FAD285
:102610006A461579E122120102E0891A6D1CADB2F9
:102620009142FAD26A46547902E0641CA4B23C3961
:102630003C29FAD2927951188EB20121890203E025
:102640007A1A761C97B2B6B28F42F9D203E03C3EBA
:10265000641CB6B2A4B23C2EF9D203E03C3C6D1C23
:10266000A4B2ADB23C2CF9D203E0183D401CADB28F
:1026700080B2182DF9D26946C978890769464A7827
:1026800027D01849491E515C814202D2FDF730FD26
:1026900008461249CA1B10492C394A6005225206C5
:1026A0008A618E704C700A460D7020321070684638
:1026B000C079C8700020C861FF2248610132C8603B
:1026C0004A620861024608462438FFF799F907B0C4
:1026D000F0BD04490C31D5E790020020FF03000053
:1026E00080AEFEFF4556000810B506480168C86870
:1026F00080221040FF388238C86051000148FFF73F
:1027000053F810BD4002002010B5410EC0017D22DB
:102710000023FDF703FD10BD01B582B00020C043CA
:102720000090012301AA02A90248FFF774FB684642
:1027300080880EBDA802002030B585B014216846FF
:10274000FDF735FD2E482D4901602F4A2D4B002104
:10275000126803E05208491C072901D29A42F9D8AD
:102760004A078B07D20FDB0F52011B011A43C9071F
:1027700000D008210024846004610A434461FF21E1
:10278000C460053184624160012149020346183367
:1027900016C344621D48816B0125AD032943816343
:1027A0001748FFF7F5FA002801D0FEF783F802205A
:1027B0000190029004940320154C012103906A4675
:1027C00049032046FFF780FD6A4629462046FFF769
:1027D0007BFD6A4661012046FFF776FD01210191EC
:1027E0000D0302916A4629462046FFF76DFD01223E
:1027F00029462046FFF7B8FD05B030BD003800403F
:10280000A8020020809698003C00002000100240A2
:102810000004005000BFFDE7EFF3108172B6034AD9
:102820001368034381F3108813607047540000203D
:10283000EFF3108172B6034A1368834381F3108863
:102840001360704754000020014800687047000082
:1028500054000020FF220132811A90420CD009DC82
:1028600008280DD008DC012808D0022806D004284A
:1028700002D105E00F2212020720704705207047A1
:1028800006207047704700008307FF22DB0E9A4046
:102890008907090E994000280BDA0007000F083855
:1028A000830808489B001818C36993430B43C3610E
:1028B0007047830804489B001B181868904308431E
:1028C0001860704700ED00E000E400E0F8B50D4C42
:1028D0001546A1800A46074601461E460A48FDF7EE
:1028E0004DFC6570A6700120207008A002F0B6FDB6
:1028F0003246294608A002F0B1FD39460EA002F08A
:10290000ADFDF8BD48000020000300204F6E527856
:10291000446F6E650A0D00005273736956616C75E1
:10292000653D25642064426D2C20536E7256616CA7
:1029300075653D25640A0D00446174613D25730A87
:102940000000000010B50548406B80470449032093
:10295000087004A002F082FD10BD0000BC55000804
:10296000480000204F6E52784572726F720A0D0057
:1029700010B503490220087002A002F06FFD10BDDF
:10298000480000204F6E527854696D656F75740A67
:102990000D00000010B50548406B80470449042035
:1029A000087004A002F05AFD10BD0000BC550008DC
:1029B000480000204F6E5478446F6E650A0D000089
:1029C00010B50548406B804704490520087004A0F5
:1029D00002F044FD10BD0000BC5500084800002076
:1029E0004F6E547854696D656F75740A0D00000060
:1029F00010B5024801F0FCFB10BD000040030020B0
:102A00007047000070B517490023CA681206120FFC
:102A100018D18A6B154CD500134A02D51268224092
:102A200009E08E6B01252D072E438E6312688E6B95
:102A30002240AE438E63A24204D10321890388421F
:102A400000D101230A48016849084900194301607F
:102A50000068C007C00F984201D0012070BD00205F
:102A600070BD00000010024000700040001800001F
:102A70000020024001090A2200075143000F4018BC
:102A8000C0B27047002102E00A38C0B2491C0A28CF
:102A9000FAD20907090E0843704770B5044600686A
:102AA000C168490613D40021C943C160FEF7F8F894
:102AB0007D260546F60006E0FEF7F2F8401BB04220
:102AC00001D9032070BD2068C0684006F4D50020FD
:102AD00070BD10B5FFF700FD10BDF8B51D461646D8
:102AE0000F460446FEF7DCF8314626464036009095
:102AF00000291ED043E0681C1BD0002D05D0FEF736
:102B0000CFF80099401AA84213D920684168E02202
:102B1000914341602068026840218A43026023E0BB
:102B200021680A6882430A6021680A6802430A60D1
:102B30001FE02068816838468843DCD124E0681CA7
:102B40001DD0002D06D0FEF7ABF801460098081AFC
:102B5000A84214D920684268E0218A434260206874
:102B600001684022914301600120A16A4003814233
:102B7000D6D001207074002030740320F8BD206886
:102B8000816838468843DAD00020F8BD70470000DD
:102B90000149886070470000000000200120704754
:102BA00010B50348806840688047801C10BD000055
:102BB0000000002001480079704700005C010020FF
:102BC000F3B5034600206E4A8DB00146002B02D0BB
:102BD000012B48D14FE06A48C069FDF7AFFC029174
:102BE0000C900E98FDF7AAFC06460F46302000F028
:102BF0007CFC4007800F02D00024624D01E00024DD
:102C00002546272000F071FC5D494007400F098CE4
:102C1000401C4018FDF792FC594A203207929278E6
:102C2000012A21D00022574BFDF7CCFA22462B4631
:102C3000FDF7C8FA32463B46FDF7C4FA079A127907
:102C4000012A14D000221346FDF7BCFA0322FDF737
:102C50004BFC029B0C9AFDF7CFFB00224A4BFDF781
:102C600063FB02F033FB86E000221346DCE7002220
:102C700001239B07E8E70024506C2546002804D078
:102C8000012805D0022808D105E000243F4D04E0CA
:102C900000243F4D01E03F4D0024976C0120B840D7
:102CA000FDF738FC02460B4620462946FDF7A4FBFB
:102CB00002460B4600203349FDF79EFB304E04468A
:102CC00040360D46F089FDF739FC0022324BFDF706
:102CD00079FA22462B46FDF727FB09910890707B75
:102CE000001DFDF72BFC06900791B8000290317B88
:102CF000002900D00221401AFDF720FC04900E9814
:102D00000F46C1000298081AB17C09014018317CB5
:102D1000002900D01421401A1C30FDF70FFC3B465F
:102D2000049AFDF769FB02F051F9079B069AFDF73B
:102D3000FBFA002207460E461346FDF72BFC02D293
:102D40003846314601E0002001460022134BFDF7D2
:102D500039FA22462B46FDF7E7FA099B089AFDF758
:102D600031FA0022084BFDF7DFFA0D4A0D4BFDF753
:102D700029FA02F08FF9FDF7EFFB0FB0F0BD00006C
:102D80005C0100200000F03F00408F408084FE4046
:102D900080840E4180841E410000114000002040CC
:102DA0002B8716D9CEF7EF3F00207047F8B51D4DA1
:102DB0001D4968601D4801F0A1F91C481A491430EA
:102DC00001F09CF919481849283001F097F9A868D2
:102DD00001680120884700F0CDFB002000F0FCFCDA
:102DE000A868816828460C308847114E002460008E
:102DF0002718F05D00F0C0FCB8198178407801F028
:102E0000D9F8641CE4B2112CF1D3002000F0B4FC1A
:102E10000649002068390871A86840688047801C0E
:102E2000F8BD000000000020ED330008C4010020C0
:102E3000D854000810B586B014216846FDF7B7F9DC
:102E40001448019002200524C101240702906A461B
:102E50002046FFF739FA01216A46C9022046FFF7EA
:102E600033FA01216A4609032046FFF72DFA6A4624
:102E700080212046FFF728FA074C6A4601212046A8
:102E8000FFF722FA6A4602212046FFF71DFA06B034
:102E900010BD0000000011100004005010B586B0F5
:102EA00014216846FDF783F91748FFF771FE1748AC
:102EB00001900220029003200524FF2124070390A3
:102EC0006A4601312046FFF7FFF901216A46C9022F
:102ED0002046FFF7F9F901216A4609032046FFF76A
:102EE000F3F96A4680212046FFF7EEF9084C6A465E
:102EF00001212046FFF7E8F96A4602212046FFF744
:102F0000E3F906B010BD00002400002000001110FD
:102F10000004005070B505250446FF212D07036805
:102F2000002201312846FFF705FA01210022C902DB
:102F300028466368FFF7FEF90121002209032846AD
:102F4000A368FFF7F7F9002280212846E368FFF71E
:102F5000F1F970BD70B514460E46054600F00CFC44
:102F6000304600F0C9FB052000F036FC0120FDF7DB
:102F70005FFC284600F0EBFA054600F04BFEA54248
:102F800001DD002070BD012070BD0000F8B50025F6
:102F9000684605708D4C2079012809D0022859D146
:102FA0002046683001F05CF9607901287ED1FBE0B1
:102FB00086484079002818D001284BD140211220A2
:102FC00000F0F8FF122000F090FA694608700878C7
:102FD0007E4C80064034002869DA2021122000F05F
:102FE000E9FFA07D00287DD092E0784E2036307930
:102FF000012837D13F2000F078FA69460870087838
:1030000080072FD40B213E2000F0D4FF10213F2059
:1030100000F0D0FF30465C3001F022F9B079002892
:1030200019D00D2000F061FA402101430D2000F07D
:10303000C1FF3046703001F0DBF865484068002879
:1030400003D00069002800D0804735745F4875744C
:1030500085874587F8BD5D48903001F001F95B48F0
:103060000571EAE7594C608FE71FF93F002802D14C
:10307000A18F002904D0A28F801AC1B2D0190BE011
:10308000B078002836D0322000F02FFA6087618FA8
:10309000A08F091AC9B2C01900F052FA608FA08738
:1030A0004A487C3001F0DCF8B07901E080E03CE097
:1030B000002825D00D2000F018FA402101430D20F2
:1030C00000F078FF4148903001F092F840484068A5
:1030D00000280AD08768002F07D01222B256618FCD
:1030E000002300E012E03B48B84735747574A587AB
:1030F0006587F8BD354801213A3000F021FAC6E76E
:1031000032482571903001F0ABF8DFE72F480571A8
:103110002E487C3001F0A4F82D4840680028E8D003
:1031200000690028E5D08047F8BD192000F0DDF9DE
:10313000264E40B260363070010605D5C043401CB3
:103140000006800E474201E00006870E1A2000F0BC
:10315000CCF9002F03DA01110818C01901E00111A0
:1031600008188B386084132000F0BFF930710146D5
:10317000184800F0E5F9A07D002801D11348057139
:1031800012487C3001F06CF8114840680028CBD020
:103190008568002DC8D000232222F356A25E317923
:1031A0000C48A8470CA00DE00821122000F002FFF7
:1031B0000748257140680028B6D000680028B3D0C1
:1031C000804708A002F04AF9F8BD00005C01002029
:1031D000000000205C0000207278446F6E650A0DCC
:1031E000000000007478446F6E650A0D0000000056
:1031F00070B5304C25462379E61F6A79698FA88F10
:10320000F93E2035012B11D0022B28D1002A26D1DE
:103210000A1A23469B8FE97F304618188A4243DDFD
:1032200000F0F0FEA08FE97F40183BE0002A17D0A5
:10323000012A14D11F487C3001F012F8802112209D
:1032400000F0B8FE002020711B484068002806D01E
:10325000C068002803D0804718A002F0FFF870BDB6
:10326000002908D1002806D1A87800280FD03220E4
:1032700000F03BF96087618FA08F0A1AA97F8A420C
:103280000BDD801900F05CF9A08FA97FCCE709481D
:1032900001213A3000F054F9EDE7D1B2801900F085
:1032A0004FF904E0A08770BDD1B200F0ABFE608F93
:1032B000F8E700005C0100200000002072785469EB
:1032C0006D654F75740A0D0070B5294D294C29465E
:1032D00008462A7940304979C07C012A04D0022A64
:1032E00001D1002902D170BD002916D00129FAD1DF
:1032F0000128F8D10221122000F05CFE606800284D
:10330000F1D040690028EED01C2000F0EEF8616892
:1033100080064969800E884770BD154C012620340F
:103320002674607C0028F7D12046703000F098FFAA
:103330006674112000F0D9F840084042A0741B20A8
:1033400000F0D3F806021C2000F0CFF80643300A44
:103350000102094A711A514380315043090A401849
:1033600068630C2000F0C1F84009207670BD0000B1
:103370005C01002000000020093D000010B512484B
:10338000407900281FD001281DD1122000F0ADF88F
:103390000E4CC0070BD00521122000F00BFE606818
:1033A000002810D0816900290DD001200AE00421F5
:1033B000122000F0FFFD6068002804D08169002918
:1033C00001D00020884710BD5C01002000000020D3
:1033D00005484079002806D103482030017C0029A7
:1033E00001D10121017470475C010020F8B52C4D1A
:1033F0002879012827D0022824D100F0BBF800202A
:1034000000F0EAF9274E002460002718F05D00F074
:10341000B3F9B8198178407800F0CCFD641CE4B2AF
:10342000112CF1D3002000F0A7F91F4C207800F0F8
:1034300015FC002028716068002803D0406800282F
:1034400000D08047F8BD6879002816D1144E0024BA
:10345000203634747474AC876C870B213E2000F0E6
:10346000A9FD10213F2000F0A5FDB07901280AD068
:1034700030462C71703000F0F3FE0B484068002895
:10348000E0D0C068DBE70D2000F02FF840210143B9
:103490000D2000F08FFD0248903000F0A9FEECE70F
:1034A0005C010020D85400080000002070B5002501
:1034B000012000F061F9FF21112000F07BFD0520C3
:1034C00000F08AF900240120FDF7B2F92C2000F069
:1034D0000CF8C007C00FA040641C0543E4B2202CC8
:1034E000F1D300F097FB284670BD08B5012269466C
:1034F00000F004F86846007808BD0000F8B5012720
:1035000015460E4604463F03002239460B48FEF797
:103510002BFF6006400EFFF7FFF8002405E00020B7
:10352000FFF7FAF83055641CE4B2AC42F7D301223D
:1035300039460248FEF718FFF8BD000000040050AD
:103540000A4610B501460020FFF7D8FF10BD10B5A0
:10355000002804D0012808D00020C04310BD11204D
:10356000FFF7C3FF4008404210BD1B20FFF7BDFF1F
:103570008B3810BD30B585B014216846FCF717FEB6
:103580000120019003200E4D0024039002946A460E
:1035900040212846FEF798FE012240212846FEF7EA
:1035A000E3FE0120FDF744F96A46402128460194D4
:1035B000FEF78AFE0620FDF73BF905B030BD00009E
:1035C0000004005073B5394C06466179002000298B
:1035D00002D0012966D128E00020A0876846334D3B
:1035E000017961872035A878002809D0322000F0C1
:1035F000E1FC68460279501E3F2806D8EA770AE0C7
:10360000012101A800F0FEFCF3E73146284801F053
:1036100051FE2020E877E97F304600F0F3FCA08FD0
:10362000E97F4018A087A06A3CE02048BE254030D2
:10363000407D012821D03320FFF757FF2840411C4F
:10364000332000F0B7FC1D213B2000F0B3FC68469E
:103650000179164860300171222000F0ABFC002196
:103660000E2000F0A7FC00210D2000F0A3FC01209B
:10367000FFF73BFF40070AD00EE03320FFF735FF8E
:1036800028400146332000F095FC1921DCE700F0CA
:10369000D3FA0120FDF7CCF868460179304600F0F6
:1036A000B1FCA06D00F0E8FA7CBD00005C010020D8
:1036B0005C00002010B505240D49240703280CD018
:1036C00000200870024604212046FDF7E3FA01229B
:1036D00002212046FDF7DEFA10BD0120087000220D
:1036E00002212046FDF7D6FA01220421F1E700006D
:1036F0005C0100207047000070B505461048114E6F
:10370000856031462846FCF7F3FC044630466043AA
:10371000281A0002711040183146FCF7E9FC21021A
:1037200044182002010E062000F044FC2004010E83
:10373000072000F03FFCE1B2082000F03BFC70BD28
:103740005C010020093D000070B50D46044600F004
:1037500013F8002C04D0012C0AD12946232005E0BF
:1037600004488078002803D12946322000F022FC4A
:1037700070BD00007C01002010B516494A798242D4
:1037800026D04871012810D0002000F025F8012033
:10379000FFF7ABFE4106490E012000F00BFC0021B3
:1037A000402000F007FC30210FE0002000F014F86A
:1037B0000120FFF79AFE80210143012000F0FAFB6F
:1037C0000021402000F0F6FB0021412000F0F2FB38
:1037D00010BD00005C01002070B50B4D0400A8680E
:1037E00001690FD000208847A868416920468847B2
:1037F0000120FFF77AFEC108C9002143012000F033
:10380000D9FB70BD0120F2E700000020F8B50446A6
:103810000920FFF76AFE074606465A20FFF765FEB5
:10382000054680200643F809012108432AD0112CBF
:1038300002DD0720054302E0ED08ED002D1DE84301
:10384000400703D0022C0CDA02240DE0052C01DA2B
:10385000052402E0142C00DD142431090901641F41
:1038600005E0112C00DD112431090901A41E2007F7
:10387000000F0143092000F09DFB29465A2000F06B
:1038800099FBF8BD0020C043844201DA044602E0FF
:103890000E2C00DD0E2431090901641CE7E700004D
:1038A000F8B54C4C074660790025002802D0012865
:1038B00050D125E0474E40202036B579FFF715FE60
:1038C0008107890F40200C3100F074FB4120FFF785
:1038D0000CFE3E2108400146C131412000F06AFB48
:1038E0003520FFF702FE8006800EB0771E210D20E6
:1038F00000F060FB002030747074A087608729E0BE
:10390000344E4036707D01283DD03320FFF7EDFD69
:10391000BE210840411C332000F04CFB1D213B2000
:1039200000F048FBF07CB57D012836D01F21112026
:1039300000F040FB4020FFF7D8FD8106890E4020B3
:1039400000F038FB00210F2000F034FB00210D2097
:1039500000F030FBFF2101311F48FCF728FC01205B
:103960002071002F08D01B4839467C3000F02EFC17
:1039700018487C3000F03CFC6079002817D0002DFE
:1039800024D0052023E03320FFF7AFFD4121014380
:10399000332000F00FFB1921C1E71D21112000F099
:1039A00009FB4020FFF7A1FD33210140C7E70520B7
:1039B000FFF712FF002D08D10648E16A903000F0B1
:1039C00005FC0448903000F013FCF8BD0620FFF71A
:1039D00003FFF8BD5C0100205C000020FFB587B04C
:1039E00017460D460446139EFFF7C6FE11998548FB
:1039F000090A0691002C1AD0012C74D1814C8764DD
:103A0000456440340A9860731198E08126741498D4
:103A100060741598A0741698E0741798207518981B
:103A200060751998A0750C2F7BD90C277CE0C761B5
:103A3000044645611098A061724820308670149940
:103A4000C170159901711899417119998171119875
:103A500020843846FCF772FD07460B4601913A4632
:103A600000206949FCF7C8FC0322FCF73DFD0490E7
:103A700005911298FCF762FD059B049AFCF754FC33
:103A80000022624BFCF750FCFCF766FDE0623A4610
:103A900000205F49019BFCF7AFFCFCF75DFD84B2A1
:103AA000210A022000F086FAE1B2032000F082FA37
:103AB0002846FCF701FF0146122000F07BFA10981F
:103AC000FCF7FAFE0146132000F074FA252006994F
:103AD00000F070FA1198C1B2262000F06BFA002EA7
:103AE00002D0149901E080E0FF21322000F062FA58
:103AF0003020FFF7FAFC6F210840002E01D0002192
:103B000000E080210843159909010143302000F0AD
:103B100051FA3120FFF7E9FC40210143312062E0F6
:103B2000FFE7062F00D20627002D02D0012D02D07C
:103B300003E00B2F3CD00C2F3AD0002020731D2027
:103B4000FFF7D3FC0A99A801C9000843B100084354
:103B5000159949000843217B0843C1B21D2000F09C
:103B600029FA1E20FFF7C1FC0C2108403901084347
:103B700012998905890F0843C1B21E2000F01AFA74
:103B80001298C1B21F2000F015FA2020069900F00B
:103B900011FA1198C1B2212000F00CFA002E03D0C6
:103BA0002220149900F006FAE07C012802D00DE0F2
:103BB0000120C3E74B20FFF798FC802101434B20F5
:103BC00000F0F8F9217D242000F0F4F9062F0ED042
:103BD0003120FFF78AFCC108C9003120C91C00F060
:103BE000E9F90A21372000F0E5F90BB0F0BD3120EA
:103BF000FFF77BFCC108C9003120491D00F0DAF94C
:103C00000C21EFE75C0100200000F03F00408F40F6
:103C100080847E4110B5074800F022FB0548143827
:103C200000F01EFB0020FFF7D7FD024900207C3981
:103C3000087110BDD801002010B5074800F010FB36
:103C40000548143800F00CFB0120FFF7C5FD0249C0
:103C500000207C39087110BDD801002010B5044641
:103C6000044804700120FFF787FD2146392000F049
:103C7000A1F910BD0000002010B50146264800F053
:103C8000A5FA254C683C6079002802D001282CD187
:103C900019E04020FFF729FC8107890F40201031EF
:103CA00000F088F94120FFF720FC3E21014041202F
:103CB00000F080F93520FFF718FC81061648890EC0
:103CC0004838817711E014482838C07C012815D085
:103CD000F721112000F06EF94020FFF706FC810665
:103CE000890E4020403100F065F9022020710A4819
:103CF00000F07EFA0320FFF76FFD10BDF5211120C3
:103D000000F058F94020FFF7F0FB3321084001464E
:103D100040314020E7E70000C4010020FFB581B03A
:103D20001E460C460C9F0A9D0198FFF725FD704822
:103D30008068C16820468847390A01986D4A009119
:103D400000281BD0012871D1204614464034207031
:103D5000566495640B996173E7810D9921740F99ED
:103D60001046E174109A22750E9AA274119A627527
:103D7000129A82650C2D5AD90C255BE014730399B5
:103D80005661D56111615B491046178420310D9A47
:103D90008A700E9A0A71119A4A7112998162039877
:103DA000FCF7CCFB0022544BFCF726FBFCF7D4FBC2
:103DB00084B2210A042000F0FDF8E1B2052000F0F1
:103DC000F9F82846FCF7BAFB02460B4600204B499F
:103DD000FCF712FBFCF7C0FB84B2210A022000F0C2
:103DE000E9F8E1B2032000F0E5F82520009900F0A1
:103DF000E1F8F9B2262000F0DDF83020FFF775FB7E
:103E00006F2108400D99002901D0002100E0802198
:103E100008430E9909010143302000F0CBF831200E
:103E2000FFF763FB40210143312052E053E0062DB0
:103E300000D20625002E02D0012E02D003E00B2D69
:103E400006D00C2D04D000202073012902D00DE0F3
:103E50000120F9E74B20FFF748FB802101434B206D
:103E600000F0A8F8217D242000F0A4F81D20FFF721
:103E70003CFB0B99B001C90008430D998900084328
:103E80000E9949000843217B0843C1B21D2000F070
:103E900091F81E20FFF729FB0007000F29010843B6
:103EA000C1B21E2000F086F82020009900F082F8B0
:103EB000F9B2212000F07EF8062D0ED03120FFF758
:103EC00014FBC108C9003120C91C00F073F80A2195
:103ED000372000F06FF805B0F0BD3120FFF705FB8B
:103EE000C108C9003120491D00F064F80C21EFE73A
:103EF000000000205C01002080844E4080847E41D0
:103F000070B505468AB00C461046FCF717FB002238
:103F1000184BFCF709FAFCF71FFB06462846FFF78B
:103F2000EBFB002006900790039005900490082179
:103F300001220C20019202910023009008961A465B
:103F400021460120FFF7EAFE3120FFF7CEFABF211C
:103F50000140312000F02EF8F021402000F02AF836
:103F6000A021412000F026F80320FFF735FC0AB01D
:103F700070BD000000408F407047000010B50C4C31
:103F80006079002812D0012810D1FA21112000F008
:103F900011F84020FFF7A9FA8106890E402000F0B1
:103FA00009F8032020710720FFF716FC10BD000060
:103FB0005C01002013B5012201A900F001F81CBD2D
:103FC000F8B5012715460E4604463F030022394640
:103FD0000B48FEF7C9F9204680210843FEF79CFBF9
:103FE000002404E0305DFEF797FB641CE4B2AC42B1
:103FF000F8D3012239460248FEF7B6F9F8BD0000B1
:10400000000400500A4610B501460020FFF7D8FF13
:1040100010BD10B5FCF74AFE10BD000010B594B0FD
:1040200014210EA8FCF7C3F838216846FCF7BFF846
:104030000220009001210A90039180040C9000243A
:104040000001019410210D900B9404916846FDF736
:104050005BF9002801D0FCF72DFC1148816B0204AC
:10406000114381630F4801680322D2029143C214B5
:10407000891801604168C943C906FBD50F200E901D
:1040800003200F9010941194012112940EA8FDF7B3
:104090002BF8002801D0FCF70DFC14B010BD000077
:1040A0000010024000700040104801688215114362
:1040B0000160C1680E4A1140C16001680D4A11409B
:1040C0000160816849084900816001680122920409
:1040D00091430160C168FD2212049143C160002137
:1040E00001610549C003886070470000001002406C
:1040F0000C40FF88F6FFF6FE00ED00E000220260B3
:10410000426002720261C1607047000010B5054A4A
:104110001168002901D000230B720161106000F0CA
:104120003FF810BD5800002070B5FEF7A3F9044613
:10413000FEF742FA031B194C206800282DD00146D7
:10414000002507E016689E4202D9F61A166000E0C4
:10415000156009690A69002AF4D100281DD0016997
:104160002160C068002800D1FEE780472068002851
:1041700013D0FEF785F9014620680268914205D9FF
:1041800001692160C0680028EFD1FEE7002804D053
:10419000017A002901D100F003F870BD5800002019
:1041A00070B50446FEF764F9054601202072FEF75B
:1041B00067F921684019884201D8084603E0FEF7F4
:1041C0005FF940192060FEF7A5F970BD70B505468E
:1041D0000846FEF799FA0446284600F041F8FEF733
:1041E00047F9844200D204462C606C6070BD000028
:1041F000F8B50400EFF3108572B62CD0174F38686D
:10420000014602E0A04226D000690028FAD100262B
:1042100060682060267200290CD0FEF731F9216811
:104220000918216038680268914206D22046FFF7DB
:104230006DFF10E0FEF7C0F9F8E70169002908D02A
:1042400022680B689A4201D90846F6E704612161A9
:1042500001E00461266185F31088F8BD5800002054
:1042600070B5EFF3108572B6144C21680A1E21D088
:1042700000281FD081421BD1087A00260128086936
:1042800003D000280AD0206014E0002804D00E7269
:104290002060FFF785FF0DE0FEF726FA266009E0B3
:1042A000814203D108691061002803E00A460969C8
:1042B0000029F5D185F3108870BD0000580000205A
:1042C00010B5818CC90707D001684A6801235B04D7
:1042D0009A43836A1A434A60818C890707D501682B
:1042E0004A6801231B049A43C36A1A434A60818CBB
:1042F000490707D501684A6801239B049A43036B69
:104300001A434A60818C090707D501684A6801236E
:10431000DB039A43436B1A434A60818CC90607D575
:104320000268916801231B039943836B19439160D1
:10433000818C890607D501688A6801235B039A434B
:10434000C36B1A438A60818C490612D503685A6888
:1043500001210905046C8A4322435A60026C8A4297
:1043600007D10268516803235B059943436C1943E5
:104370005160818C090607D501684A680123DB0476
:10438000806C9A4302434A6010BD0000F8B50026D5
:104390000446C666FCF784FC054620680068124F98
:1043A000000709D501212B46002249052046009728
:1043B00000F034F900280DD12068006840070BD5C3
:1043C00001212B46002289052046009700F026F99E
:1043D000002801D00320F8BD202060346072A07254
:1043E00026720020F8BD0000FFFFFF01FEB5044665
:1043F000016880682269E36910436269102700261A
:104400001A4310430A683546784B1A4002430A6043
:1044100020684168032212039143E268114341601E
:10442000734A2168A069914201D0226A10438A68C8
:104430000B231B029A4302438A606E4A20686E492E
:1044400090420CD1C8688007800F06D0012843D065
:1044500002283FD0032826D124E0012723E0674A21
:1044600090420AD1C8680C21084031D0042833D0CA
:1044700008282FD00C2816D114E0614A904227D08A
:10448000604A904224D05A4A90420CD1C968032015
:10449000800201401CD01015091A1DD0091A19D02C
:1044A000814200D108270220FCF764FC0190504BA8
:1044B000514922684039D81300929A4235D1002FD1
:1044C0000CD0022F0DD0042F12D0082F1CD113E0D6
:1044D0000027E8E70227E6E70427E4E7FCF7B8FE51
:1044E00008E00868C00601D5474805E0474803E0F2
:1044F000FCF7CEFE002873D062685100511881424B
:1045000002D81103814201D2012569E0010E0602A1
:104510005008002330185941FBF700FE032109021F
:104520003B4A411A914259D9EEE7E26982422DD1C4
:104530003B0000F0D2F80906080B24192424241F9C
:104540002400019812E0FCF793FE0FE00868616810
:10455000C00602D548082F4A01E02F4A48088018B3
:10456000FBF7C6FD86B20BE0FCF792FE61684000E7
:104570004A08F4E76168012248081204EFE70125C0
:10458000310909013007400F084327E03B0000F0E4
:10459000A4F809070A0D061D060606290600B3E75A
:1045A000FCF756FE14E0FCF763FE11E00868616852
:1045B000C00602D54A08144801E014484A081018F9
:1045C000FBF796FD81B20098C16009E0FCF760FE40
:1045D00061684A088018FBF78BFD80B22168C860CB
:1045E0002846FEBD61684A08E9E70000F369FFEF6D
:1045F00000480040003801404010024000440040A4
:10460000004C00400050004000093D000024F40030
:10461000FFFC0F0000127A000048E801FFB581B0EE
:1046200017460E4604460A9D1DE0681C1BD0002D4F
:1046300005D0FCF735FB0499401AA84213D920682D
:104640000168FF22A1329143016020688168490816
:1046500049008160202060346072A07200202072C6
:10466000032005B0F0BD2068C1693046884304D0FE
:104670000020B842D9D00020F3E70120F9E710B5B7
:1046800000F0C2FE10BD000037B514460846064BC8
:104690006A46214600F0F8F804466946002000F01A
:1046A0008FFC20463EBD0000C14F00082021020CB7
:1046B00001D010211046020A01D010460839020923
:1046C00001D01046091F820801D01046891E4208F9
:1046D00001D0881E7047081A704730B47446641EB3
:1046E0002578641CAB4200D21D46635D5B00E31875
:1046F00030BC184702E008C8121F08C1002AFAD1CE
:1047000070477047002001E001C1121F002AFBD151
:1047100070470000F0B51FB486B00998089A030DE1
:104720000021024314D05148514A1818504305142F
:104730001198012810981AD0281A401C00264D4FB5
:104740004D49009601910490002812DA444211E08C
:104750001198012449A3012801D11098C14306985A
:10476000119A84600360C26041600BB0F0BD4042AA
:10477000E4E70446210500203F4A001C5141039113
:10478000029012E0E00707D032463B4601990098BC
:10479000FBF7CAFD0191009032463B461046194690
:1047A000FBF7C2FD06460F466410002CEAD10498C0
:1047B000039B0028029A0999089806DAFBF7B4FDD2
:1047C000019B009AFBF7B0FD05E0FBF715FE019B8E
:1047D000009AFBF711FE04460E460022284BFBF719
:1047E000D9FE03D80020C043014607E00022254B34
:1047F00020463146FBF7E6FCFBF7B2FF102409E048
:10480000002C0ADB0A220023FBF788FC079B3032CE
:104810001A55641E02460A43F2D11122641C079BFA
:10482000121B1C19119B012B03D0012308430ED12D
:104830000AE0084304D0112010900020119077E77F
:104840001098151A6D1E0BE01098824202DD0023AD
:104850006D1C03E0824201DA00236D1E002BEED0B6
:10486000069811998260C16030C07EE701FCFFFFAD
:10487000104D0000000014400000F03F3000000028
:104880000000F0430000E03FFFB597B0064600256A
:1048900018E2252877D100242746FD49049400E03A
:1048A0000443761C32780120203A90400842F7D128
:1048B00030782A280ED00222307801463039092972
:1048C00016D804990A235943303940181443761CEA
:1048D0000490F1E7189802C804911890002904DAAE
:1048E0000120400304434842049002200443761C04
:1048F00030782E2814D1042004437078761C2A289E
:1049000009D11898761C80C8189009E00A214F43F5
:10491000303FC719761C3078014630390929F5D95E
:1049200030786C2810D006DC4C281AD068280ED0BD
:104930006A2817D104E0742813D07A2812D110E025
:104940000120400504430CE00121090501E0032199
:1049500009050C437178814203D101200005241818
:10496000761C761C3078119066280BD013DC582802
:104970007DD009DC00287BD04528F6D04628F4D02D
:1049800047281AD1A5E118E0632835D0642870D0F3
:10499000652812D19DE170286CD008DC6728F1D021
:1049A00069287BD06E280DD06F2806D1BAE0732815
:1049B0002ED0752871D0782859D01A9A1999904715
:1049C0006D1C7EE16002400F022809D003280DD043
:1049D0000428189801680DD00D60001D189070E132
:1049E0001898EA1701680D604A60F6E718980168A0
:1049F0000D80F2E70D70F0E718986A4601781172A1
:104A0000001D18900020507202A80090012005E0BF
:104A1000189802C8189000200091C04361070DD576
:104A2000002101E00199491C0191B94212DA814249
:104A3000F8DB009A515C0029F4D10BE0002101E081
:104A40000199491C01918142FADB019A0099895C24
:104A50000029F5D1019904981A9B471A2146384636
:104A6000199A00F097FA0199401945180BE04FE0A8
:104A70002CE113E04EE0009800990078491C009169
:104A80001A9A199990470198401E0190401CF2D142
:104A9000214638461A9B199A10E137E00A20002176
:104AA000009001916002410F022907D0189A01CAB3
:104AB0001892C2179446032908D00AE01898C01D1E
:104AC000C108C90005C91891944607E000B2C21791
:104AD0009446042902D140B2C1178C460022614697
:104AE000944506DA0A460021404291418C462D2128
:104AF00002E0210504D52B216A461173012103E050
:104B0000E10701D02021F7E7029155E00A200AE0F1
:104B1000102008E01020009000210420044301919F
:104B2000082703E008200021019100906002410F56
:104B3000022907D0189A01CA189200229446032924
:104B400008D008E01898C01DC108C90005C918910F
:104B5000944603E080B2042900D1C0B20021029142
:104B6000210729D51199702906D0009A1021019B9F
:104B70004A401A4305D00EE040216A4611730121D4
:104B800008E06146014306D030216A46117311994D
:104B9000517302210291009A0821019B4A401A4355
:104BA0000AD16146014301D1610705D530216A462A
:104BB000117301217F1E02911199582904D035A14A
:104BC0000E910DA90D910DE037A1F9E76146019B0A
:104BD000009AFBF7A3FA0E9B8C469B5C0D9A521E23
:104BE0000D92137061460143F0D10D9805A9081A82
:104BF00020300190600703D501200004844300E0C9
:104C000001270198874201DD381A00E00020019950
:104C100000904118029809180498401A0490E00383
:104C200006D421461A9B199A049800F0B3F9451945
:104C3000002706E003A81A9AC05D199990476D1CD9
:104C40007F1C02988742F5DBE0030CD521461A9BB6
:104C5000199A049800F09EF9451904E01A9A302038
:104C6000199990476D1C0099481E00900029F5DCA9
:104C700008E00D980D990078491C0D911A9A199920
:104C800090476D1C0199481E01900029F1DC63E1F9
:104C90000928010030313233343536373839616212
:104CA00063646566000000003031323334353637D6
:104CB00038394142434445460000000000F05AF9AB
:104CC0004519761C3078002800D0E2E528461BB054
:104CD000F0BD600700D406271898C01DC108C900A0
:104CE00048680A680831C30FDB071891190001D022
:104CF0009CA108E0210501D59BA104E0E10701D0BA
:104D00009AA100E09AA1430011985B0810916528D0
:104D10000CD006DC452809D046281DD0472841D1B3
:104D200041E0662818D067283CD13CE00021112FD3
:104D300001DB112000E0781C0191009008A911A866
:104D4000FFF7E8FC139905910021119A15927F1C39
:104D500012980197009150E00120C00703900120B4
:104D6000019008A9009711A8FFF7D4FC139A149991
:104D700005920022119B009212981593059A0192B8
:104D8000002901D0104602E0791C40180190381A21
:104D900001D5019804E04042401E0090781C01902B
:104DA000C01B029043E0012F00DA01270021112FE0
:104DB00001DD112000E038460191009008A911A8FA
:104DC000FFF7A8FC13990591119A002112981592EA
:104DD0000091019721070CD40599B94201DB019993
:104DE00000E00191012904DD159A491E515C30292A
:104DF00006D0B84201DA011D05DA0121029115E061
:104E00000199491EEDE7002805DC00994118009141
:104E10000199091A03E0019A411C914200DD0191B8
:104E20000099401A401C02900120C00703902007FF
:104E300006D402990198814202DB0020C04302900F
:104E400000206946C87707AF012103980337C907D7
:104E5000884224D0022011902B2012900398002821
:104E60000CDA404203902D20129007E00A210398AB
:104E7000FBF73EF930317F1E039039701199481EBF
:104E800011900029F2DC03980028EFD1791E1298C6
:104E900008703078202108404530BF1E387006A8C1
:104EA000C01BC01D039010980078002800D001207E
:104EB000019941180298C017091803980918049815
:104EC000401A401E0490E00306D421461A9B199A0A
:104ED000049800F05FF8451910980078002803D076
:104EE0001A9A199990476D1CE00324D521461A9B04
:104EF000199A049800F04EF845191CE00098002813
:104F000007DB00990598884203DD1598405C1999E4
:104F100001E0199930201A9A904700986D1C401CA6
:104F200000900298401E0290002804D11A9A2E2068
:104F3000199990476D1C0199481E01900029DDDCEC
:104F400005E038781A9A7F1C199990476D1C0399CF
:104F5000481E03900029F4DC21461A9B199A0498F4
:104F6000ACE600002D0000002B0000002000000037
:104F700000000000F8B5044600251E4617468804C8
:104F800004D405E039462020B0476D1C641EF9D5D5
:104F90002846F8BDFFB50446002581B01E46C8036B
:104FA00001D5302700E02027880404D505E03846E5
:104FB0000399B0476D1C641EF9D5284605B0F0BDB5
:104FC0000A68531C0B60107070470000F8B54A0067
:104FD0002B4B520DD6182B4A0C460546142E2BDAB5
:104FE000002E12DA284BFBF7EDF800221346FBF7F0
:104FF000D1FA40D2002C03DA0124E40700253AE07C
:105000002046284337D0214C14E0214F0B46F7406F
:105010003B402B4331D01C4BFBF7D4F80022134606
:10502000FBF7B8FA27D2002C03DD01200005F04081
:105030000419BC4300251EE0332E1EDC3346002736
:10504000143BFF43DF40384217D00F4BFBF764F9A6
:1050500000221346FBF79EFA0DD2002C0ADD142E17
:105060000CD03420811B012088404019A84200D276
:10507000641C0546BD4321462846F8BD641CF9E77B
:1050800001FCFFFF9C7500883CE4377E0000F03F88
:10509000FFFF0F00F8B54A002B4B520DD6182B4AD4
:1050A0000C460546142E2BDA002E12DA284BFBF79D
:1050B00089F800221346FBF76DFA40D2002C02DB80
:1050C000002425463BE060004008284337D0214CAF
:1050D00014E0214F0B46F7403B402B4331D01C4B93
:1050E000FBF770F800221346FBF754FA27D2002C86
:1050F00003DA01200005F0400419BC4300251EE03E
:10510000332E1EDC33460027143BFF43DF4038427A
:1051100017D00F4BFBF700F900221346FBF73AFAC2
:105120000DD2002C0ADA142E0CD03420811B012061
:1051300088404019A84200D2641C0546BD43214660
:105140002846F8BD641CF9E701FCFFFF9C75008848
:105150003CE4377E0000F0BFFFFF0F008AB0FBF792
:10516000ADFDFEF75BFFFBF741FBFDF703F945489B
:10517000C26A02210A43C262C26A0A400592C16A37
:1051800001263143C162C06A0022304005900520EB
:1051900031460007FBF77EFD0024052000960294AF
:1051A0006946000701960394FBF7AEFC3649374881
:1051B000FEF7A4FFC8213548FFF708F83348FFF78A
:1051C00017F832483249143001603249816032495F
:1051D00041603249C1603249324D0161A968884756
:1051E00069693148884731480694089005940794C6
:1051F000082002A9019651C1072000900023022136
:105200006F6A1A460120B8470794052002900820CB
:1052100006940894099605960394049400940190CA
:10522000012307222C6A00211846A0477D24E400B0
:10523000E96B204688470122052011460007FBF74D
:1052400029FD1249502040390870492048704E20ED
:1052500088704720C870164E0420B0802046FBF7A7
:105260003DFC05273F0701213846FBF70FFD0748A6
:105270002A6B3179403890472046FBF7D9FA62B65D
:10528000F1E7000000100240F1290008400300206F
:1052900095290008CD280008C129000871290008B7
:1052A00045290008BC55000840DA8E33C0C62D00E1
:1052B0004800002003E00B780370401C491C134693
:1052C000521E92B2002BF6D170470000F0B513B415
:1052D00006460199FBF706FA04460D4602460B46C0
:1052E00030460199FBF712F8064601981B4B0F4612
:1052F00000280CDA00223046FBF752FA0CD90022C3
:10530000174B30463946FBF745F91DD214E0002211
:105310003046FBF745FA08D20022124B20462946B8
:10532000FAF7F4FF04460D460EE000220C4B30461F
:105330003946FBF72FF907D800220A4B20462946A9
:10534000FAF740FF04460D46019A69004908D20F5A
:10535000D2072046114303B0F0BD00000000E0BFBB
:105360000000E03F0000F03F10B50F480D4901601C
:105370004B21C901416000218160C16001618161EF
:105380000C214161FCF7A3FE002801D0FBF792FA43
:10539000002201211C20FBF7D1FC1C20FBF7BAFCEA
:1053A00010BD000000380140D004002030B587B0A7
:1053B00014216846FAF7FBFE1248C26A01210A432B
:1053C000C262C26A0A400592C26A0A43C262C06AE5
:1053D0000525084005904802009002200190032016
:1053E000029104242D070390694604942846FBF794
:1053F0008BFB20020090694604942846FBF784FB4F
:1054000007B030BD0010024010B5114C0FE0EFF3B3
:10541000108072B60F498918521CD2B2628080F394
:105420001088FF232D3301220B48FCF793FE2088C0
:105430006288801AFF300130C117090E0918090A65
:105440000902401A0028E2DC1C20FBF759FC10BDC1
:1054500050000020D0030020D00400200FB4F0B58D
:10546000A1B027AAEFF3108472B668462699FFF719
:105470000BF9174DC6B228888119FF2915482988CC
:1054800008D8401832466946FAF778FE288880190D
:10549000288012E0FF220132511ACFB229883A4601
:1054A00040186946FAF76AFEF01BC6B26846C11991
:1054B00032460848FAF762FE2E8084F310881C20DA
:1054C000FBF732FC21B0F0BC08BC04B01847000068
:1054D00050000020D0030020000C23000D1E000E01
:1054E000D2001A01001FAA0024070027120028C1B9
:1054F000002994002AC10030D800358F003B0200FB
:10550000400000413001314301234000280A0000DF
:10551000170000001C0C00000F0000003C0F0000F2
:105520000700000050140000160000009C18000046
:105530000E000000781E000006000000A0280000F9
:1055400015000000D43000000D000000F03C000009
:10555000050000004051000014000000A861000098
:105560000C000000447A000004000000E4A20000E7
:105570001300000050C300000B00000024F40000E2
:10558000030000008545010012000000A086010014
:105590000A00000048E80100020000002C8B020015
:1055A00011000000400D03000900000090D003002E
:1055B00001000000E0930400000000009D2E0008A0
:1055C000352E0008AD2D0008B52B000879370008EE
:1055D000F9360008552F0008AD340008DD39000801
:1055E0001D3D00089D2B0008C12B0008C535000893
:1055F000153C0008393C0008A13800087D3F000830
:10560000013F00084F350008B53F0008EB340008A3
:10561000C13F0008FD3400085D3C00084937000820
:10562000A12B00080000000000000000010203049C
:1056300006070809030406080C10182030000000B3
:1056400000010203041F1C1F1E1F1E1F1F1E1F1E02
:105650001F1F1D1F1E1F1E1F1F1E1F1E1F000000BD
:1056600080560008000000205C000000F44600089E
:10567000DC5600085C000020E40800000447000835
:105680000000000000000000000000008D2F000856
:10569000F1310008C93200087D330008D133000819
:1056A00000000000793F0008A92D0008152F000810
:1056B0000D380008F5360008B536000880841E0055
:1056C000000000000000000000000000400000009A
:0C56D000000000000000000000000000CE
:04000005080000C12E
:00000001FF
